{
  "_format": "hh-sol-artifact-1",
  "contractName": "NFT",
  "sourceName": "contracts/NFT.sol",
  "abi": [
    {
      "inputs": [
        {
          "internalType": "string",
          "name": "_name",
          "type": "string"
        },
        {
          "internalType": "string",
          "name": "_symbol",
          "type": "string"
        },
        {
          "internalType": "string",
          "name": "_initBaseURI",
          "type": "string"
        }
      ],
      "stateMutability": "nonpayable",
      "type": "constructor"
    },
    {
      "anonymous": false,
      "inputs": [
        {
          "indexed": true,
          "internalType": "address",
          "name": "owner",
          "type": "address"
        },
        {
          "indexed": true,
          "internalType": "address",
          "name": "approved",
          "type": "address"
        },
        {
          "indexed": true,
          "internalType": "uint256",
          "name": "tokenId",
          "type": "uint256"
        }
      ],
      "name": "Approval",
      "type": "event"
    },
    {
      "anonymous": false,
      "inputs": [
        {
          "indexed": true,
          "internalType": "address",
          "name": "owner",
          "type": "address"
        },
        {
          "indexed": true,
          "internalType": "address",
          "name": "operator",
          "type": "address"
        },
        {
          "indexed": false,
          "internalType": "bool",
          "name": "approved",
          "type": "bool"
        }
      ],
      "name": "ApprovalForAll",
      "type": "event"
    },
    {
      "anonymous": false,
      "inputs": [
        {
          "indexed": true,
          "internalType": "address",
          "name": "previousOwner",
          "type": "address"
        },
        {
          "indexed": true,
          "internalType": "address",
          "name": "newOwner",
          "type": "address"
        }
      ],
      "name": "OwnershipTransferred",
      "type": "event"
    },
    {
      "anonymous": false,
      "inputs": [
        {
          "indexed": true,
          "internalType": "address",
          "name": "from",
          "type": "address"
        },
        {
          "indexed": true,
          "internalType": "address",
          "name": "to",
          "type": "address"
        },
        {
          "indexed": true,
          "internalType": "uint256",
          "name": "tokenId",
          "type": "uint256"
        }
      ],
      "name": "Transfer",
      "type": "event"
    },
    {
      "inputs": [],
      "name": "BlockchainAddress",
      "outputs": [
        {
          "internalType": "address",
          "name": "",
          "type": "address"
        }
      ],
      "stateMutability": "view",
      "type": "function"
    },
    {
      "inputs": [],
      "name": "BlockchainPercent",
      "outputs": [
        {
          "internalType": "uint256",
          "name": "",
          "type": "uint256"
        }
      ],
      "stateMutability": "view",
      "type": "function"
    },
    {
      "inputs": [],
      "name": "NFTBrandAddress",
      "outputs": [
        {
          "internalType": "address",
          "name": "",
          "type": "address"
        }
      ],
      "stateMutability": "view",
      "type": "function"
    },
    {
      "inputs": [],
      "name": "NFTBrandAddressPercent",
      "outputs": [
        {
          "internalType": "uint256",
          "name": "",
          "type": "uint256"
        }
      ],
      "stateMutability": "view",
      "type": "function"
    },
    {
      "inputs": [
        {
          "internalType": "address",
          "name": "to",
          "type": "address"
        },
        {
          "internalType": "uint256",
          "name": "tokenId",
          "type": "uint256"
        }
      ],
      "name": "approve",
      "outputs": [],
      "stateMutability": "nonpayable",
      "type": "function"
    },
    {
      "inputs": [
        {
          "internalType": "address",
          "name": "owner",
          "type": "address"
        }
      ],
      "name": "balanceOf",
      "outputs": [
        {
          "internalType": "uint256",
          "name": "",
          "type": "uint256"
        }
      ],
      "stateMutability": "view",
      "type": "function"
    },
    {
      "inputs": [],
      "name": "baseExtension",
      "outputs": [
        {
          "internalType": "string",
          "name": "",
          "type": "string"
        }
      ],
      "stateMutability": "view",
      "type": "function"
    },
    {
      "inputs": [],
      "name": "baseURI",
      "outputs": [
        {
          "internalType": "string",
          "name": "",
          "type": "string"
        }
      ],
      "stateMutability": "view",
      "type": "function"
    },
    {
      "inputs": [],
      "name": "cost",
      "outputs": [
        {
          "internalType": "uint256",
          "name": "",
          "type": "uint256"
        }
      ],
      "stateMutability": "view",
      "type": "function"
    },
    {
      "inputs": [
        {
          "internalType": "uint256",
          "name": "tokenId",
          "type": "uint256"
        }
      ],
      "name": "getApproved",
      "outputs": [
        {
          "internalType": "address",
          "name": "",
          "type": "address"
        }
      ],
      "stateMutability": "view",
      "type": "function"
    },
    {
      "inputs": [],
      "name": "high_cost",
      "outputs": [
        {
          "internalType": "uint256",
          "name": "",
          "type": "uint256"
        }
      ],
      "stateMutability": "view",
      "type": "function"
    },
    {
      "inputs": [
        {
          "internalType": "address",
          "name": "owner",
          "type": "address"
        },
        {
          "internalType": "address",
          "name": "operator",
          "type": "address"
        }
      ],
      "name": "isApprovedForAll",
      "outputs": [
        {
          "internalType": "bool",
          "name": "",
          "type": "bool"
        }
      ],
      "stateMutability": "view",
      "type": "function"
    },
    {
      "inputs": [],
      "name": "maxMintAmount",
      "outputs": [
        {
          "internalType": "uint256",
          "name": "",
          "type": "uint256"
        }
      ],
      "stateMutability": "view",
      "type": "function"
    },
    {
      "inputs": [],
      "name": "maxSupply",
      "outputs": [
        {
          "internalType": "uint256",
          "name": "",
          "type": "uint256"
        }
      ],
      "stateMutability": "view",
      "type": "function"
    },
    {
      "inputs": [
        {
          "internalType": "address",
          "name": "_to",
          "type": "address"
        },
        {
          "internalType": "uint256",
          "name": "_mintAmount",
          "type": "uint256"
        }
      ],
      "name": "mint",
      "outputs": [],
      "stateMutability": "payable",
      "type": "function"
    },
    {
      "inputs": [],
      "name": "name",
      "outputs": [
        {
          "internalType": "string",
          "name": "",
          "type": "string"
        }
      ],
      "stateMutability": "view",
      "type": "function"
    },
    {
      "inputs": [],
      "name": "owner",
      "outputs": [
        {
          "internalType": "address",
          "name": "",
          "type": "address"
        }
      ],
      "stateMutability": "view",
      "type": "function"
    },
    {
      "inputs": [
        {
          "internalType": "uint256",
          "name": "tokenId",
          "type": "uint256"
        }
      ],
      "name": "ownerOf",
      "outputs": [
        {
          "internalType": "address",
          "name": "",
          "type": "address"
        }
      ],
      "stateMutability": "view",
      "type": "function"
    },
    {
      "inputs": [
        {
          "internalType": "bool",
          "name": "_state",
          "type": "bool"
        }
      ],
      "name": "pause",
      "outputs": [],
      "stateMutability": "nonpayable",
      "type": "function"
    },
    {
      "inputs": [],
      "name": "paused",
      "outputs": [
        {
          "internalType": "bool",
          "name": "",
          "type": "bool"
        }
      ],
      "stateMutability": "view",
      "type": "function"
    },
    {
      "inputs": [],
      "name": "presaleAmount",
      "outputs": [
        {
          "internalType": "uint256",
          "name": "",
          "type": "uint256"
        }
      ],
      "stateMutability": "view",
      "type": "function"
    },
    {
      "inputs": [],
      "name": "presaleCost",
      "outputs": [
        {
          "internalType": "uint256",
          "name": "",
          "type": "uint256"
        }
      ],
      "stateMutability": "view",
      "type": "function"
    },
    {
      "inputs": [],
      "name": "renounceOwnership",
      "outputs": [],
      "stateMutability": "nonpayable",
      "type": "function"
    },
    {
      "inputs": [
        {
          "internalType": "address",
          "name": "from",
          "type": "address"
        },
        {
          "internalType": "address",
          "name": "to",
          "type": "address"
        },
        {
          "internalType": "uint256",
          "name": "tokenId",
          "type": "uint256"
        }
      ],
      "name": "safeTransferFrom",
      "outputs": [],
      "stateMutability": "nonpayable",
      "type": "function"
    },
    {
      "inputs": [
        {
          "internalType": "address",
          "name": "from",
          "type": "address"
        },
        {
          "internalType": "address",
          "name": "to",
          "type": "address"
        },
        {
          "internalType": "uint256",
          "name": "tokenId",
          "type": "uint256"
        },
        {
          "internalType": "bytes",
          "name": "_data",
          "type": "bytes"
        }
      ],
      "name": "safeTransferFrom",
      "outputs": [],
      "stateMutability": "nonpayable",
      "type": "function"
    },
    {
      "inputs": [],
      "name": "sellTimeStamp",
      "outputs": [
        {
          "internalType": "uint256",
          "name": "",
          "type": "uint256"
        }
      ],
      "stateMutability": "view",
      "type": "function"
    },
    {
      "inputs": [
        {
          "internalType": "address",
          "name": "operator",
          "type": "address"
        },
        {
          "internalType": "bool",
          "name": "approved",
          "type": "bool"
        }
      ],
      "name": "setApprovalForAll",
      "outputs": [],
      "stateMutability": "nonpayable",
      "type": "function"
    },
    {
      "inputs": [
        {
          "internalType": "string",
          "name": "_newBaseExtension",
          "type": "string"
        }
      ],
      "name": "setBaseExtension",
      "outputs": [],
      "stateMutability": "nonpayable",
      "type": "function"
    },
    {
      "inputs": [
        {
          "internalType": "string",
          "name": "_newBaseURI",
          "type": "string"
        }
      ],
      "name": "setBaseURI",
      "outputs": [],
      "stateMutability": "nonpayable",
      "type": "function"
    },
    {
      "inputs": [
        {
          "internalType": "uint256",
          "name": "_newCost",
          "type": "uint256"
        }
      ],
      "name": "setCost",
      "outputs": [],
      "stateMutability": "nonpayable",
      "type": "function"
    },
    {
      "inputs": [
        {
          "internalType": "uint256",
          "name": "_newSupply",
          "type": "uint256"
        }
      ],
      "name": "setMaxSupply",
      "outputs": [],
      "stateMutability": "nonpayable",
      "type": "function"
    },
    {
      "inputs": [
        {
          "internalType": "bytes4",
          "name": "interfaceId",
          "type": "bytes4"
        }
      ],
      "name": "supportsInterface",
      "outputs": [
        {
          "internalType": "bool",
          "name": "",
          "type": "bool"
        }
      ],
      "stateMutability": "view",
      "type": "function"
    },
    {
      "inputs": [],
      "name": "symbol",
      "outputs": [
        {
          "internalType": "string",
          "name": "",
          "type": "string"
        }
      ],
      "stateMutability": "view",
      "type": "function"
    },
    {
      "inputs": [
        {
          "internalType": "uint256",
          "name": "index",
          "type": "uint256"
        }
      ],
      "name": "tokenByIndex",
      "outputs": [
        {
          "internalType": "uint256",
          "name": "",
          "type": "uint256"
        }
      ],
      "stateMutability": "view",
      "type": "function"
    },
    {
      "inputs": [
        {
          "internalType": "address",
          "name": "owner",
          "type": "address"
        },
        {
          "internalType": "uint256",
          "name": "index",
          "type": "uint256"
        }
      ],
      "name": "tokenOfOwnerByIndex",
      "outputs": [
        {
          "internalType": "uint256",
          "name": "",
          "type": "uint256"
        }
      ],
      "stateMutability": "view",
      "type": "function"
    },
    {
      "inputs": [
        {
          "internalType": "uint256",
          "name": "tokenId",
          "type": "uint256"
        }
      ],
      "name": "tokenURI",
      "outputs": [
        {
          "internalType": "string",
          "name": "",
          "type": "string"
        }
      ],
      "stateMutability": "view",
      "type": "function"
    },
    {
      "inputs": [],
      "name": "totalSupply",
      "outputs": [
        {
          "internalType": "uint256",
          "name": "",
          "type": "uint256"
        }
      ],
      "stateMutability": "view",
      "type": "function"
    },
    {
      "inputs": [
        {
          "internalType": "address",
          "name": "from",
          "type": "address"
        },
        {
          "internalType": "address",
          "name": "to",
          "type": "address"
        },
        {
          "internalType": "uint256",
          "name": "tokenId",
          "type": "uint256"
        }
      ],
      "name": "transferFrom",
      "outputs": [],
      "stateMutability": "nonpayable",
      "type": "function"
    },
    {
      "inputs": [
        {
          "internalType": "address",
          "name": "newOwner",
          "type": "address"
        }
      ],
      "name": "transferOwnership",
      "outputs": [],
      "stateMutability": "nonpayable",
      "type": "function"
    },
    {
      "inputs": [
        {
          "internalType": "address",
          "name": "_owner",
          "type": "address"
        }
      ],
      "name": "walletOfOwner",
      "outputs": [
        {
          "internalType": "uint256[]",
          "name": "",
          "type": "uint256[]"
        }
      ],
      "stateMutability": "view",
      "type": "function"
    },
    {
      "inputs": [],
      "name": "withdraw",
      "outputs": [],
      "stateMutability": "payable",
      "type": "function"
    },
    {
      "inputs": [],
      "name": "withdrawToTwoAddress",
      "outputs": [],
      "stateMutability": "payable",
      "type": "function"
    }
  ],
  "bytecode": "0x60806040526040518060400160405280600581526020017f2e6a736f6e000000000000000000000000000000000000000000000000000000815250600c908051906020019062000051929190620003a0565b5061029a600d556000600e60006101000a81548160ff0219169083151502179055507384c8450f8eb6c91e2ac6272a9c724fe825d728e0600e60016101000a81548173ffffffffffffffffffffffffffffffffffffffff021916908373ffffffffffffffffffffffffffffffffffffffff1602179055507386fc54dccea6233c1ebdd77dbfc26c07482305ca600f60006101000a81548173ffffffffffffffffffffffffffffffffffffffff021916908373ffffffffffffffffffffffffffffffffffffffff160217905550605060105560146011556064601255662386f26fc1000060135566470de4df820000601455666a94d74f4300006015556362173b0060165560056017553480156200016757600080fd5b5060405162004bd338038062004bd383398181016040528101906200018d9190620004c2565b82828160009080519060200190620001a7929190620003a0565b508060019080519060200190620001c0929190620003a0565b505050620001e3620001d7620001fd60201b60201c565b6200020560201b60201c565b620001f481620002cb60201b60201c565b50505062000756565b600033905090565b6000600a60009054906101000a900473ffffffffffffffffffffffffffffffffffffffff16905081600a60006101000a81548173ffffffffffffffffffffffffffffffffffffffff021916908373ffffffffffffffffffffffffffffffffffffffff1602179055508173ffffffffffffffffffffffffffffffffffffffff168173ffffffffffffffffffffffffffffffffffffffff167f8be0079c531659141344cd1fd0a4f28419497f9722a3daafe3b4186f6b6457e060405160405180910390a35050565b620002db620001fd60201b60201c565b73ffffffffffffffffffffffffffffffffffffffff16620003016200037660201b60201c565b73ffffffffffffffffffffffffffffffffffffffff16146200035a576040517f08c379a000000000000000000000000000000000000000000000000000000000815260040162000351906200058a565b60405180910390fd5b80600b908051906020019062000372929190620003a0565b5050565b6000600a60009054906101000a900473ffffffffffffffffffffffffffffffffffffffff16905090565b828054620003ae9062000652565b90600052602060002090601f016020900481019282620003d257600085556200041e565b82601f10620003ed57805160ff19168380011785556200041e565b828001600101855582156200041e579182015b828111156200041d57825182559160200191906001019062000400565b5b5090506200042d919062000431565b5090565b5b808211156200044c57600081600090555060010162000432565b5090565b6000620004676200046184620005d5565b620005ac565b9050828152602081018484840111156200048057600080fd5b6200048d8482856200061c565b509392505050565b600082601f830112620004a757600080fd5b8151620004b984826020860162000450565b91505092915050565b600080600060608486031215620004d857600080fd5b600084015167ffffffffffffffff811115620004f357600080fd5b620005018682870162000495565b935050602084015167ffffffffffffffff8111156200051f57600080fd5b6200052d8682870162000495565b925050604084015167ffffffffffffffff8111156200054b57600080fd5b620005598682870162000495565b9150509250925092565b6000620005726020836200060b565b91506200057f826200072d565b602082019050919050565b60006020820190508181036000830152620005a58162000563565b9050919050565b6000620005b8620005cb565b9050620005c6828262000688565b919050565b6000604051905090565b600067ffffffffffffffff821115620005f357620005f2620006ed565b5b620005fe826200071c565b9050602081019050919050565b600082825260208201905092915050565b60005b838110156200063c5780820151818401526020810190506200061f565b838111156200064c576000848401525b50505050565b600060028204905060018216806200066b57607f821691505b60208210811415620006825762000681620006be565b5b50919050565b62000693826200071c565b810181811067ffffffffffffffff82111715620006b557620006b4620006ed565b5b80604052505050565b7f4e487b7100000000000000000000000000000000000000000000000000000000600052602260045260246000fd5b7f4e487b7100000000000000000000000000000000000000000000000000000000600052604160045260246000fd5b6000601f19601f8301169050919050565b7f4f776e61626c653a2063616c6c6572206973206e6f7420746865206f776e6572600082015250565b61446d80620007666000396000f3fe6080604052600436106102515760003560e01c80636c0360eb11610139578063b138d500116100b6578063c87b56dd1161007a578063c87b56dd14610869578063d5abeb01146108a6578063da3ef23f146108d1578063e985e9c5146108fa578063ed9b362714610937578063f2fde38b1461096257610251565b8063b138d500146107b5578063b204ed0f146107e0578063b88d4fde146107ea578063bc601d3b14610813578063c66828621461083e57610251565b80638da5cb5b116100fd5780638da5cb5b146106e057806395d89b411461070b578063a218944314610736578063a22cb46514610761578063a80527811461078a57610251565b80636c0360eb1461060d5780636f8b44b01461063857806370a0823114610661578063715018a61461069e5780638907effd146106b557610251565b80632f745c59116101d2578063438b630011610196578063438b6300146104d957806344a0d68a146105165780634f6ccce71461053f57806355f804b31461057c5780635c975abb146105a55780636352211e146105d057610251565b80632f745c591461042257806334a9f18b1461045f5780633ccfd60b1461048a57806340c10f191461049457806342842e0e146104b057610251565b806313faede61161021957806313faede61461034d57806318160ddd14610378578063239c70ae146103a357806323b872dd146103ce5780632a23d07d146103f757610251565b806301ffc9a71461025657806302329a291461029357806306fdde03146102bc578063081812fc146102e7578063095ea7b314610324575b600080fd5b34801561026257600080fd5b5061027d60048036038101906102789190613200565b61098b565b60405161028a91906137c0565b60405180910390f35b34801561029f57600080fd5b506102ba60048036038101906102b591906131d7565b610a05565b005b3480156102c857600080fd5b506102d1610a9e565b6040516102de91906137db565b60405180910390f35b3480156102f357600080fd5b5061030e60048036038101906103099190613293565b610b30565b60405161031b9190613737565b60405180910390f35b34801561033057600080fd5b5061034b6004803603810190610346919061319b565b610bb5565b005b34801561035957600080fd5b50610362610ccd565b60405161036f9190613a3d565b60405180910390f35b34801561038457600080fd5b5061038d610cd3565b60405161039a9190613a3d565b60405180910390f35b3480156103af57600080fd5b506103b8610ce0565b6040516103c59190613a3d565b60405180910390f35b3480156103da57600080fd5b506103f560048036038101906103f09190613095565b610ce6565b005b34801561040357600080fd5b5061040c610d46565b6040516104199190613a3d565b60405180910390f35b34801561042e57600080fd5b506104496004803603810190610444919061319b565b610d4c565b6040516104569190613a3d565b60405180910390f35b34801561046b57600080fd5b50610474610df1565b6040516104819190613a3d565b60405180910390f35b610492610df7565b005b6104ae60048036038101906104a9919061319b565b610eb3565b005b3480156104bc57600080fd5b506104d760048036038101906104d29190613095565b610f53565b005b3480156104e557600080fd5b5061050060048036038101906104fb9190613030565b610f73565b60405161050d919061379e565b60405180910390f35b34801561052257600080fd5b5061053d60048036038101906105389190613293565b61106d565b005b34801561054b57600080fd5b5061056660048036038101906105619190613293565b6110f3565b6040516105739190613a3d565b60405180910390f35b34801561058857600080fd5b506105a3600480360381019061059e9190613252565b61118a565b005b3480156105b157600080fd5b506105ba611220565b6040516105c791906137c0565b60405180910390f35b3480156105dc57600080fd5b506105f760048036038101906105f29190613293565b611233565b6040516106049190613737565b60405180910390f35b34801561061957600080fd5b506106226112e5565b60405161062f91906137db565b60405180910390f35b34801561064457600080fd5b5061065f600480360381019061065a9190613293565b611373565b005b34801561066d57600080fd5b5061068860048036038101906106839190613030565b6113f9565b6040516106959190613a3d565b60405180910390f35b3480156106aa57600080fd5b506106b36114b1565b005b3480156106c157600080fd5b506106ca611539565b6040516106d79190613737565b60405180910390f35b3480156106ec57600080fd5b506106f561155f565b6040516107029190613737565b60405180910390f35b34801561071757600080fd5b50610720611589565b60405161072d91906137db565b60405180910390f35b34801561074257600080fd5b5061074b61161b565b6040516107589190613737565b60405180910390f35b34801561076d57600080fd5b506107886004803603810190610783919061315f565b611641565b005b34801561079657600080fd5b5061079f611657565b6040516107ac9190613a3d565b60405180910390f35b3480156107c157600080fd5b506107ca61165d565b6040516107d79190613a3d565b60405180910390f35b6107e8611663565b005b3480156107f657600080fd5b50610811600480360381019061080c91906130e4565b611757565b005b34801561081f57600080fd5b506108286117b9565b6040516108359190613a3d565b60405180910390f35b34801561084a57600080fd5b506108536117bf565b60405161086091906137db565b60405180910390f35b34801561087557600080fd5b50610890600480360381019061088b9190613293565b61184d565b60405161089d91906137db565b60405180910390f35b3480156108b257600080fd5b506108bb6118f7565b6040516108c89190613a3d565b60405180910390f35b3480156108dd57600080fd5b506108f860048036038101906108f39190613252565b6118fd565b005b34801561090657600080fd5b50610921600480360381019061091c9190613059565b611993565b60405161092e91906137c0565b60405180910390f35b34801561094357600080fd5b5061094c611a27565b6040516109599190613a3d565b60405180910390f35b34801561096e57600080fd5b5061098960048036038101906109849190613030565b611a2d565b005b60007f780e9d63000000000000000000000000000000000000000000000000000000007bffffffffffffffffffffffffffffffffffffffffffffffffffffffff1916827bffffffffffffffffffffffffffffffffffffffffffffffffffffffff191614806109fe57506109fd82611b25565b5b9050919050565b610a0d611c07565b73ffffffffffffffffffffffffffffffffffffffff16610a2b61155f565b73ffffffffffffffffffffffffffffffffffffffff1614610a81576040517f08c379a0000000000000000000000000000000000000000000000000000000008152600401610a78906139bd565b60405180910390fd5b80600e60006101000a81548160ff02191690831515021790555050565b606060008054610aad90613d3b565b80601f0160208091040260200160405190810160405280929190818152602001828054610ad990613d3b565b8015610b265780601f10610afb57610100808354040283529160200191610b26565b820191906000526020600020905b815481529060010190602001808311610b0957829003601f168201915b5050505050905090565b6000610b3b82611c0f565b610b7a576040517f08c379a0000000000000000000000000000000000000000000000000000000008152600401610b719061399d565b60405180910390fd5b6004600083815260200190815260200160002060009054906101000a900473ffffffffffffffffffffffffffffffffffffffff169050919050565b6000610bc082611233565b90508073ffffffffffffffffffffffffffffffffffffffff168373ffffffffffffffffffffffffffffffffffffffff161415610c31576040517f08c379a0000000000000000000000000000000000000000000000000000000008152600401610c28906139dd565b60405180910390fd5b8073ffffffffffffffffffffffffffffffffffffffff16610c50611c07565b73ffffffffffffffffffffffffffffffffffffffff161480610c7f5750610c7e81610c79611c07565b611993565b5b610cbe576040517f08c379a0000000000000000000000000000000000000000000000000000000008152600401610cb5906138fd565b60405180910390fd5b610cc88383611c7b565b505050565b60145481565b6000600880549050905090565b60175481565b610cf7610cf1611c07565b82611d34565b610d36576040517f08c379a0000000000000000000000000000000000000000000000000000000008152600401610d2d906139fd565b60405180910390fd5b610d41838383611e12565b505050565b60135481565b6000610d57836113f9565b8210610d98576040517f08c379a0000000000000000000000000000000000000000000000000000000008152600401610d8f906137fd565b60405180910390fd5b600660008473ffffffffffffffffffffffffffffffffffffffff1673ffffffffffffffffffffffffffffffffffffffff168152602001908152602001600020600083815260200190815260200160002054905092915050565b60105481565b610dff611c07565b73ffffffffffffffffffffffffffffffffffffffff16610e1d61155f565b73ffffffffffffffffffffffffffffffffffffffff1614610e73576040517f08c379a0000000000000000000000000000000000000000000000000000000008152600401610e6a906139bd565b60405180910390fd5b3373ffffffffffffffffffffffffffffffffffffffff166108fc479081150290604051600060405180830381858888f19350505050610eb157600080fd5b565b6000610ebd610cd3565b9050600e60009054906101000a900460ff1615610ed957600080fd5b60008211610ee657600080fd5b601754821115610ef557600080fd5b600d548282610f049190613b70565b1115610f0f57600080fd5b6000600190505b828111610f4557610f32848284610f2d9190613b70565b612079565b8080610f3d90613d9e565b915050610f16565b50610f4e611663565b505050565b610f6e83838360405180602001604052806000815250611757565b505050565b60606000610f80836113f9565b905060008167ffffffffffffffff811115610fc4577f4e487b7100000000000000000000000000000000000000000000000000000000600052604160045260246000fd5b604051908082528060200260200182016040528015610ff25781602001602082028036833780820191505090505b50905060005b828110156110625761100a8582610d4c565b828281518110611043577f4e487b7100000000000000000000000000000000000000000000000000000000600052603260045260246000fd5b602002602001018181525050808061105a90613d9e565b915050610ff8565b508092505050919050565b611075611c07565b73ffffffffffffffffffffffffffffffffffffffff1661109361155f565b73ffffffffffffffffffffffffffffffffffffffff16146110e9576040517f08c379a00000000000000000000000000000000000000000000000000000000081526004016110e0906139bd565b60405180910390fd5b8060148190555050565b60006110fd610cd3565b821061113e576040517f08c379a000000000000000000000000000000000000000000000000000000000815260040161113590613a1d565b60405180910390fd5b60088281548110611178577f4e487b7100000000000000000000000000000000000000000000000000000000600052603260045260246000fd5b90600052602060002001549050919050565b611192611c07565b73ffffffffffffffffffffffffffffffffffffffff166111b061155f565b73ffffffffffffffffffffffffffffffffffffffff1614611206576040517f08c379a00000000000000000000000000000000000000000000000000000000081526004016111fd906139bd565b60405180910390fd5b80600b908051906020019061121c929190612e54565b5050565b600e60009054906101000a900460ff1681565b6000806002600084815260200190815260200160002060009054906101000a900473ffffffffffffffffffffffffffffffffffffffff169050600073ffffffffffffffffffffffffffffffffffffffff168173ffffffffffffffffffffffffffffffffffffffff1614156112dc576040517f08c379a00000000000000000000000000000000000000000000000000000000081526004016112d39061393d565b60405180910390fd5b80915050919050565b600b80546112f290613d3b565b80601f016020809104026020016040519081016040528092919081815260200182805461131e90613d3b565b801561136b5780601f106113405761010080835404028352916020019161136b565b820191906000526020600020905b81548152906001019060200180831161134e57829003601f168201915b505050505081565b61137b611c07565b73ffffffffffffffffffffffffffffffffffffffff1661139961155f565b73ffffffffffffffffffffffffffffffffffffffff16146113ef576040517f08c379a00000000000000000000000000000000000000000000000000000000081526004016113e6906139bd565b60405180910390fd5b80600d8190555050565b60008073ffffffffffffffffffffffffffffffffffffffff168273ffffffffffffffffffffffffffffffffffffffff16141561146a576040517f08c379a00000000000000000000000000000000000000000000000000000000081526004016114619061391d565b60405180910390fd5b600360008373ffffffffffffffffffffffffffffffffffffffff1673ffffffffffffffffffffffffffffffffffffffff168152602001908152602001600020549050919050565b6114b9611c07565b73ffffffffffffffffffffffffffffffffffffffff166114d761155f565b73ffffffffffffffffffffffffffffffffffffffff161461152d576040517f08c379a0000000000000000000000000000000000000000000000000000000008152600401611524906139bd565b60405180910390fd5b6115376000612097565b565b600f60009054906101000a900473ffffffffffffffffffffffffffffffffffffffff1681565b6000600a60009054906101000a900473ffffffffffffffffffffffffffffffffffffffff16905090565b60606001805461159890613d3b565b80601f01602080910402602001604051908101604052809291908181526020018280546115c490613d3b565b80156116115780601f106115e657610100808354040283529160200191611611565b820191906000526020600020905b8154815290600101906020018083116115f457829003601f168201915b5050505050905090565b600e60019054906101000a900473ffffffffffffffffffffffffffffffffffffffff1681565b61165361164c611c07565b838361215d565b5050565b60165481565b60125481565b600e60019054906101000a900473ffffffffffffffffffffffffffffffffffffffff1673ffffffffffffffffffffffffffffffffffffffff166108fc6064601054346116af9190613bf7565b6116b99190613bc6565b9081150290604051600060405180830381858888f193505050506116dc57600080fd5b600f60009054906101000a900473ffffffffffffffffffffffffffffffffffffffff1673ffffffffffffffffffffffffffffffffffffffff166108fc6064601154346117289190613bf7565b6117329190613bc6565b9081150290604051600060405180830381858888f1935050505061175557600080fd5b565b611768611762611c07565b83611d34565b6117a7576040517f08c379a000000000000000000000000000000000000000000000000000000000815260040161179e906139fd565b60405180910390fd5b6117b3848484846122ca565b50505050565b60115481565b600c80546117cc90613d3b565b80601f01602080910402602001604051908101604052809291908181526020018280546117f890613d3b565b80156118455780601f1061181a57610100808354040283529160200191611845565b820191906000526020600020905b81548152906001019060200180831161182857829003601f168201915b505050505081565b606061185882611c0f565b611897576040517f08c379a000000000000000000000000000000000000000000000000000000000815260040161188e9061395d565b60405180910390fd5b60006118a1612326565b905060008151116118c157604051806020016040528060008152506118ef565b806118cb846123b8565b600c6040516020016118df93929190613706565b6040516020818303038152906040525b915050919050565b600d5481565b611905611c07565b73ffffffffffffffffffffffffffffffffffffffff1661192361155f565b73ffffffffffffffffffffffffffffffffffffffff1614611979576040517f08c379a0000000000000000000000000000000000000000000000000000000008152600401611970906139bd565b60405180910390fd5b80600c908051906020019061198f929190612e54565b5050565b6000600560008473ffffffffffffffffffffffffffffffffffffffff1673ffffffffffffffffffffffffffffffffffffffff16815260200190815260200160002060008373ffffffffffffffffffffffffffffffffffffffff1673ffffffffffffffffffffffffffffffffffffffff16815260200190815260200160002060009054906101000a900460ff16905092915050565b60155481565b611a35611c07565b73ffffffffffffffffffffffffffffffffffffffff16611a5361155f565b73ffffffffffffffffffffffffffffffffffffffff1614611aa9576040517f08c379a0000000000000000000000000000000000000000000000000000000008152600401611aa0906139bd565b60405180910390fd5b600073ffffffffffffffffffffffffffffffffffffffff168173ffffffffffffffffffffffffffffffffffffffff161415611b19576040517f08c379a0000000000000000000000000000000000000000000000000000000008152600401611b109061383d565b60405180910390fd5b611b2281612097565b50565b60007f80ac58cd000000000000000000000000000000000000000000000000000000007bffffffffffffffffffffffffffffffffffffffffffffffffffffffff1916827bffffffffffffffffffffffffffffffffffffffffffffffffffffffff19161480611bf057507f5b5e139f000000000000000000000000000000000000000000000000000000007bffffffffffffffffffffffffffffffffffffffffffffffffffffffff1916827bffffffffffffffffffffffffffffffffffffffffffffffffffffffff1916145b80611c005750611bff82612565565b5b9050919050565b600033905090565b60008073ffffffffffffffffffffffffffffffffffffffff166002600084815260200190815260200160002060009054906101000a900473ffffffffffffffffffffffffffffffffffffffff1673ffffffffffffffffffffffffffffffffffffffff1614159050919050565b816004600083815260200190815260200160002060006101000a81548173ffffffffffffffffffffffffffffffffffffffff021916908373ffffffffffffffffffffffffffffffffffffffff160217905550808273ffffffffffffffffffffffffffffffffffffffff16611cee83611233565b73ffffffffffffffffffffffffffffffffffffffff167f8c5be1e5ebec7d5bd14f71427d1e84f3dd0314c0f7b2291e5b200ac8c7c3b92560405160405180910390a45050565b6000611d3f82611c0f565b611d7e576040517f08c379a0000000000000000000000000000000000000000000000000000000008152600401611d75906138dd565b60405180910390fd5b6000611d8983611233565b90508073ffffffffffffffffffffffffffffffffffffffff168473ffffffffffffffffffffffffffffffffffffffff161480611df857508373ffffffffffffffffffffffffffffffffffffffff16611de084610b30565b73ffffffffffffffffffffffffffffffffffffffff16145b80611e095750611e088185611993565b5b91505092915050565b8273ffffffffffffffffffffffffffffffffffffffff16611e3282611233565b73ffffffffffffffffffffffffffffffffffffffff1614611e88576040517f08c379a0000000000000000000000000000000000000000000000000000000008152600401611e7f9061385d565b60405180910390fd5b600073ffffffffffffffffffffffffffffffffffffffff168273ffffffffffffffffffffffffffffffffffffffff161415611ef8576040517f08c379a0000000000000000000000000000000000000000000000000000000008152600401611eef9061389d565b60405180910390fd5b611f038383836125cf565b611f0e600082611c7b565b6001600360008573ffffffffffffffffffffffffffffffffffffffff1673ffffffffffffffffffffffffffffffffffffffff1681526020019081526020016000206000828254611f5e9190613c51565b925050819055506001600360008473ffffffffffffffffffffffffffffffffffffffff1673ffffffffffffffffffffffffffffffffffffffff1681526020019081526020016000206000828254611fb59190613b70565b92505081905550816002600083815260200190815260200160002060006101000a81548173ffffffffffffffffffffffffffffffffffffffff021916908373ffffffffffffffffffffffffffffffffffffffff160217905550808273ffffffffffffffffffffffffffffffffffffffff168473ffffffffffffffffffffffffffffffffffffffff167fddf252ad1be2c89b69c2b068fc378daa952ba7f163c4a11628f55a4df523b3ef60405160405180910390a46120748383836126e3565b505050565b6120938282604051806020016040528060008152506126e8565b5050565b6000600a60009054906101000a900473ffffffffffffffffffffffffffffffffffffffff16905081600a60006101000a81548173ffffffffffffffffffffffffffffffffffffffff021916908373ffffffffffffffffffffffffffffffffffffffff1602179055508173ffffffffffffffffffffffffffffffffffffffff168173ffffffffffffffffffffffffffffffffffffffff167f8be0079c531659141344cd1fd0a4f28419497f9722a3daafe3b4186f6b6457e060405160405180910390a35050565b8173ffffffffffffffffffffffffffffffffffffffff168373ffffffffffffffffffffffffffffffffffffffff1614156121cc576040517f08c379a00000000000000000000000000000000000000000000000000000000081526004016121c3906138bd565b60405180910390fd5b80600560008573ffffffffffffffffffffffffffffffffffffffff1673ffffffffffffffffffffffffffffffffffffffff16815260200190815260200160002060008473ffffffffffffffffffffffffffffffffffffffff1673ffffffffffffffffffffffffffffffffffffffff16815260200190815260200160002060006101000a81548160ff0219169083151502179055508173ffffffffffffffffffffffffffffffffffffffff168373ffffffffffffffffffffffffffffffffffffffff167f17307eab39ab6107e8899845ad3d59bd9653f200f220920489ca2b5937696c31836040516122bd91906137c0565b60405180910390a3505050565b6122d5848484611e12565b6122e184848484612743565b612320576040517f08c379a00000000000000000000000000000000000000000000000000000000081526004016123179061381d565b60405180910390fd5b50505050565b6060600b805461233590613d3b565b80601f016020809104026020016040519081016040528092919081815260200182805461236190613d3b565b80156123ae5780601f10612383576101008083540402835291602001916123ae565b820191906000526020600020905b81548152906001019060200180831161239157829003601f168201915b5050505050905090565b60606000821415612400576040518060400160405280600181526020017f30000000000000000000000000000000000000000000000000000000000000008152509050612560565b600082905060005b6000821461243257808061241b90613d9e565b915050600a8261242b9190613bc6565b9150612408565b60008167ffffffffffffffff811115612474577f4e487b7100000000000000000000000000000000000000000000000000000000600052604160045260246000fd5b6040519080825280601f01601f1916602001820160405280156124a65781602001600182028036833780820191505090505b5090505b60008514612559576001826124bf9190613c51565b9150600a856124ce9190613de7565b60306124da9190613b70565b60f81b818381518110612516577f4e487b7100000000000000000000000000000000000000000000000000000000600052603260045260246000fd5b60200101907effffffffffffffffffffffffffffffffffffffffffffffffffffffffffffff1916908160001a905350600a856125529190613bc6565b94506124aa565b8093505050505b919050565b60007f01ffc9a7000000000000000000000000000000000000000000000000000000007bffffffffffffffffffffffffffffffffffffffffffffffffffffffff1916827bffffffffffffffffffffffffffffffffffffffffffffffffffffffff1916149050919050565b6125da8383836128da565b600073ffffffffffffffffffffffffffffffffffffffff168373ffffffffffffffffffffffffffffffffffffffff16141561261d57612618816128df565b61265c565b8173ffffffffffffffffffffffffffffffffffffffff168373ffffffffffffffffffffffffffffffffffffffff161461265b5761265a8382612928565b5b5b600073ffffffffffffffffffffffffffffffffffffffff168273ffffffffffffffffffffffffffffffffffffffff16141561269f5761269a81612a95565b6126de565b8273ffffffffffffffffffffffffffffffffffffffff168273ffffffffffffffffffffffffffffffffffffffff16146126dd576126dc8282612bd8565b5b5b505050565b505050565b6126f28383612c57565b6126ff6000848484612743565b61273e576040517f08c379a00000000000000000000000000000000000000000000000000000000081526004016127359061381d565b60405180910390fd5b505050565b60006127648473ffffffffffffffffffffffffffffffffffffffff16612e31565b156128cd578373ffffffffffffffffffffffffffffffffffffffff1663150b7a0261278d611c07565b8786866040518563ffffffff1660e01b81526004016127af9493929190613752565b602060405180830381600087803b1580156127c957600080fd5b505af19250505080156127fa57506040513d601f19601f820116820180604052508101906127f79190613229565b60015b61287d573d806000811461282a576040519150601f19603f3d011682016040523d82523d6000602084013e61282f565b606091505b50600081511415612875576040517f08c379a000000000000000000000000000000000000000000000000000000000815260040161286c9061381d565b60405180910390fd5b805181602001fd5b63150b7a0260e01b7bffffffffffffffffffffffffffffffffffffffffffffffffffffffff1916817bffffffffffffffffffffffffffffffffffffffffffffffffffffffff1916149150506128d2565b600190505b949350505050565b505050565b6008805490506009600083815260200190815260200160002081905550600881908060018154018082558091505060019003906000526020600020016000909190919091505550565b60006001612935846113f9565b61293f9190613c51565b9050600060076000848152602001908152602001600020549050818114612a24576000600660008673ffffffffffffffffffffffffffffffffffffffff1673ffffffffffffffffffffffffffffffffffffffff168152602001908152602001600020600084815260200190815260200160002054905080600660008773ffffffffffffffffffffffffffffffffffffffff1673ffffffffffffffffffffffffffffffffffffffff168152602001908152602001600020600084815260200190815260200160002081905550816007600083815260200190815260200160002081905550505b6007600084815260200190815260200160002060009055600660008573ffffffffffffffffffffffffffffffffffffffff1673ffffffffffffffffffffffffffffffffffffffff16815260200190815260200160002060008381526020019081526020016000206000905550505050565b60006001600880549050612aa99190613c51565b9050600060096000848152602001908152602001600020549050600060088381548110612aff577f4e487b7100000000000000000000000000000000000000000000000000000000600052603260045260246000fd5b906000526020600020015490508060088381548110612b47577f4e487b7100000000000000000000000000000000000000000000000000000000600052603260045260246000fd5b906000526020600020018190555081600960008381526020019081526020016000208190555060096000858152602001908152602001600020600090556008805480612bbc577f4e487b7100000000000000000000000000000000000000000000000000000000600052603160045260246000fd5b6001900381819060005260206000200160009055905550505050565b6000612be3836113f9565b905081600660008573ffffffffffffffffffffffffffffffffffffffff1673ffffffffffffffffffffffffffffffffffffffff168152602001908152602001600020600083815260200190815260200160002081905550806007600084815260200190815260200160002081905550505050565b600073ffffffffffffffffffffffffffffffffffffffff168273ffffffffffffffffffffffffffffffffffffffff161415612cc7576040517f08c379a0000000000000000000000000000000000000000000000000000000008152600401612cbe9061397d565b60405180910390fd5b612cd081611c0f565b15612d10576040517f08c379a0000000000000000000000000000000000000000000000000000000008152600401612d079061387d565b60405180910390fd5b612d1c600083836125cf565b6001600360008473ffffffffffffffffffffffffffffffffffffffff1673ffffffffffffffffffffffffffffffffffffffff1681526020019081526020016000206000828254612d6c9190613b70565b92505081905550816002600083815260200190815260200160002060006101000a81548173ffffffffffffffffffffffffffffffffffffffff021916908373ffffffffffffffffffffffffffffffffffffffff160217905550808273ffffffffffffffffffffffffffffffffffffffff16600073ffffffffffffffffffffffffffffffffffffffff167fddf252ad1be2c89b69c2b068fc378daa952ba7f163c4a11628f55a4df523b3ef60405160405180910390a4612e2d600083836126e3565b5050565b6000808273ffffffffffffffffffffffffffffffffffffffff163b119050919050565b828054612e6090613d3b565b90600052602060002090601f016020900481019282612e825760008555612ec9565b82601f10612e9b57805160ff1916838001178555612ec9565b82800160010185558215612ec9579182015b82811115612ec8578251825591602001919060010190612ead565b5b509050612ed69190612eda565b5090565b5b80821115612ef3576000816000905550600101612edb565b5090565b6000612f0a612f0584613a7d565b613a58565b905082815260208101848484011115612f2257600080fd5b612f2d848285613cf9565b509392505050565b6000612f48612f4384613aae565b613a58565b905082815260208101848484011115612f6057600080fd5b612f6b848285613cf9565b509392505050565b600081359050612f82816143db565b92915050565b600081359050612f97816143f2565b92915050565b600081359050612fac81614409565b92915050565b600081519050612fc181614409565b92915050565b600082601f830112612fd857600080fd5b8135612fe8848260208601612ef7565b91505092915050565b600082601f83011261300257600080fd5b8135613012848260208601612f35565b91505092915050565b60008135905061302a81614420565b92915050565b60006020828403121561304257600080fd5b600061305084828501612f73565b91505092915050565b6000806040838503121561306c57600080fd5b600061307a85828601612f73565b925050602061308b85828601612f73565b9150509250929050565b6000806000606084860312156130aa57600080fd5b60006130b886828701612f73565b93505060206130c986828701612f73565b92505060406130da8682870161301b565b9150509250925092565b600080600080608085870312156130fa57600080fd5b600061310887828801612f73565b945050602061311987828801612f73565b935050604061312a8782880161301b565b925050606085013567ffffffffffffffff81111561314757600080fd5b61315387828801612fc7565b91505092959194509250565b6000806040838503121561317257600080fd5b600061318085828601612f73565b925050602061319185828601612f88565b9150509250929050565b600080604083850312156131ae57600080fd5b60006131bc85828601612f73565b92505060206131cd8582860161301b565b9150509250929050565b6000602082840312156131e957600080fd5b60006131f784828501612f88565b91505092915050565b60006020828403121561321257600080fd5b600061322084828501612f9d565b91505092915050565b60006020828403121561323b57600080fd5b600061324984828501612fb2565b91505092915050565b60006020828403121561326457600080fd5b600082013567ffffffffffffffff81111561327e57600080fd5b61328a84828501612ff1565b91505092915050565b6000602082840312156132a557600080fd5b60006132b38482850161301b565b91505092915050565b60006132c883836136e8565b60208301905092915050565b6132dd81613c85565b82525050565b60006132ee82613b04565b6132f88185613b32565b935061330383613adf565b8060005b8381101561333457815161331b88826132bc565b975061332683613b25565b925050600181019050613307565b5085935050505092915050565b61334a81613c97565b82525050565b600061335b82613b0f565b6133658185613b43565b9350613375818560208601613d08565b61337e81613ed4565b840191505092915050565b600061339482613b1a565b61339e8185613b54565b93506133ae818560208601613d08565b6133b781613ed4565b840191505092915050565b60006133cd82613b1a565b6133d78185613b65565b93506133e7818560208601613d08565b80840191505092915050565b6000815461340081613d3b565b61340a8186613b65565b94506001821660008114613425576001811461343657613469565b60ff19831686528186019350613469565b61343f85613aef565b60005b8381101561346157815481890152600182019150602081019050613442565b838801955050505b50505092915050565b600061347f602b83613b54565b915061348a82613ee5565b604082019050919050565b60006134a2603283613b54565b91506134ad82613f34565b604082019050919050565b60006134c5602683613b54565b91506134d082613f83565b604082019050919050565b60006134e8602583613b54565b91506134f382613fd2565b604082019050919050565b600061350b601c83613b54565b915061351682614021565b602082019050919050565b600061352e602483613b54565b91506135398261404a565b604082019050919050565b6000613551601983613b54565b915061355c82614099565b602082019050919050565b6000613574602c83613b54565b915061357f826140c2565b604082019050919050565b6000613597603883613b54565b91506135a282614111565b604082019050919050565b60006135ba602a83613b54565b91506135c582614160565b604082019050919050565b60006135dd602983613b54565b91506135e8826141af565b604082019050919050565b6000613600603683613b54565b915061360b826141fe565b604082019050919050565b6000613623602083613b54565b915061362e8261424d565b602082019050919050565b6000613646602c83613b54565b915061365182614276565b604082019050919050565b6000613669602083613b54565b9150613674826142c5565b602082019050919050565b600061368c602183613b54565b9150613697826142ee565b604082019050919050565b60006136af603183613b54565b91506136ba8261433d565b604082019050919050565b60006136d2602c83613b54565b91506136dd8261438c565b604082019050919050565b6136f181613cef565b82525050565b61370081613cef565b82525050565b600061371282866133c2565b915061371e82856133c2565b915061372a82846133f3565b9150819050949350505050565b600060208201905061374c60008301846132d4565b92915050565b600060808201905061376760008301876132d4565b61377460208301866132d4565b61378160408301856136f7565b81810360608301526137938184613350565b905095945050505050565b600060208201905081810360008301526137b881846132e3565b905092915050565b60006020820190506137d56000830184613341565b92915050565b600060208201905081810360008301526137f58184613389565b905092915050565b6000602082019050818103600083015261381681613472565b9050919050565b6000602082019050818103600083015261383681613495565b9050919050565b60006020820190508181036000830152613856816134b8565b9050919050565b60006020820190508181036000830152613876816134db565b9050919050565b60006020820190508181036000830152613896816134fe565b9050919050565b600060208201905081810360008301526138b681613521565b9050919050565b600060208201905081810360008301526138d681613544565b9050919050565b600060208201905081810360008301526138f681613567565b9050919050565b600060208201905081810360008301526139168161358a565b9050919050565b60006020820190508181036000830152613936816135ad565b9050919050565b60006020820190508181036000830152613956816135d0565b9050919050565b60006020820190508181036000830152613976816135f3565b9050919050565b6000602082019050818103600083015261399681613616565b9050919050565b600060208201905081810360008301526139b681613639565b9050919050565b600060208201905081810360008301526139d68161365c565b9050919050565b600060208201905081810360008301526139f68161367f565b9050919050565b60006020820190508181036000830152613a16816136a2565b9050919050565b60006020820190508181036000830152613a36816136c5565b9050919050565b6000602082019050613a5260008301846136f7565b92915050565b6000613a62613a73565b9050613a6e8282613d6d565b919050565b6000604051905090565b600067ffffffffffffffff821115613a9857613a97613ea5565b5b613aa182613ed4565b9050602081019050919050565b600067ffffffffffffffff821115613ac957613ac8613ea5565b5b613ad282613ed4565b9050602081019050919050565b6000819050602082019050919050565b60008190508160005260206000209050919050565b600081519050919050565b600081519050919050565b600081519050919050565b6000602082019050919050565b600082825260208201905092915050565b600082825260208201905092915050565b600082825260208201905092915050565b600081905092915050565b6000613b7b82613cef565b9150613b8683613cef565b9250827fffffffffffffffffffffffffffffffffffffffffffffffffffffffffffffffff03821115613bbb57613bba613e18565b5b828201905092915050565b6000613bd182613cef565b9150613bdc83613cef565b925082613bec57613beb613e47565b5b828204905092915050565b6000613c0282613cef565b9150613c0d83613cef565b9250817fffffffffffffffffffffffffffffffffffffffffffffffffffffffffffffffff0483118215151615613c4657613c45613e18565b5b828202905092915050565b6000613c5c82613cef565b9150613c6783613cef565b925082821015613c7a57613c79613e18565b5b828203905092915050565b6000613c9082613ccf565b9050919050565b60008115159050919050565b60007fffffffff0000000000000000000000000000000000000000000000000000000082169050919050565b600073ffffffffffffffffffffffffffffffffffffffff82169050919050565b6000819050919050565b82818337600083830152505050565b60005b83811015613d26578082015181840152602081019050613d0b565b83811115613d35576000848401525b50505050565b60006002820490506001821680613d5357607f821691505b60208210811415613d6757613d66613e76565b5b50919050565b613d7682613ed4565b810181811067ffffffffffffffff82111715613d9557613d94613ea5565b5b80604052505050565b6000613da982613cef565b91507fffffffffffffffffffffffffffffffffffffffffffffffffffffffffffffffff821415613ddc57613ddb613e18565b5b600182019050919050565b6000613df282613cef565b9150613dfd83613cef565b925082613e0d57613e0c613e47565b5b828206905092915050565b7f4e487b7100000000000000000000000000000000000000000000000000000000600052601160045260246000fd5b7f4e487b7100000000000000000000000000000000000000000000000000000000600052601260045260246000fd5b7f4e487b7100000000000000000000000000000000000000000000000000000000600052602260045260246000fd5b7f4e487b7100000000000000000000000000000000000000000000000000000000600052604160045260246000fd5b6000601f19601f8301169050919050565b7f455243373231456e756d657261626c653a206f776e657220696e646578206f7560008201527f74206f6620626f756e6473000000000000000000000000000000000000000000602082015250565b7f4552433732313a207472616e7366657220746f206e6f6e20455243373231526560008201527f63656976657220696d706c656d656e7465720000000000000000000000000000602082015250565b7f4f776e61626c653a206e6577206f776e657220697320746865207a65726f206160008201527f6464726573730000000000000000000000000000000000000000000000000000602082015250565b7f4552433732313a207472616e736665722066726f6d20696e636f72726563742060008201527f6f776e6572000000000000000000000000000000000000000000000000000000602082015250565b7f4552433732313a20746f6b656e20616c7265616479206d696e74656400000000600082015250565b7f4552433732313a207472616e7366657220746f20746865207a65726f2061646460008201527f7265737300000000000000000000000000000000000000000000000000000000602082015250565b7f4552433732313a20617070726f766520746f2063616c6c657200000000000000600082015250565b7f4552433732313a206f70657261746f7220717565727920666f72206e6f6e657860008201527f697374656e7420746f6b656e0000000000000000000000000000000000000000602082015250565b7f4552433732313a20617070726f76652063616c6c6572206973206e6f74206f7760008201527f6e6572206e6f7220617070726f76656420666f7220616c6c0000000000000000602082015250565b7f4552433732313a2062616c616e636520717565727920666f7220746865207a6560008201527f726f206164647265737300000000000000000000000000000000000000000000602082015250565b7f4552433732313a206f776e657220717565727920666f72206e6f6e657869737460008201527f656e7420746f6b656e0000000000000000000000000000000000000000000000602082015250565b7f4552433732314d657461646174613a2055524920717565727920666f72206e6f60008201527f6e6578697374656e7420426f6f2043726577204e465400000000000000000000602082015250565b7f4552433732313a206d696e7420746f20746865207a65726f2061646472657373600082015250565b7f4552433732313a20617070726f76656420717565727920666f72206e6f6e657860008201527f697374656e7420746f6b656e0000000000000000000000000000000000000000602082015250565b7f4f776e61626c653a2063616c6c6572206973206e6f7420746865206f776e6572600082015250565b7f4552433732313a20617070726f76616c20746f2063757272656e74206f776e6560008201527f7200000000000000000000000000000000000000000000000000000000000000602082015250565b7f4552433732313a207472616e736665722063616c6c6572206973206e6f74206f60008201527f776e6572206e6f7220617070726f766564000000000000000000000000000000602082015250565b7f455243373231456e756d657261626c653a20676c6f62616c20696e646578206f60008201527f7574206f6620626f756e64730000000000000000000000000000000000000000602082015250565b6143e481613c85565b81146143ef57600080fd5b50565b6143fb81613c97565b811461440657600080fd5b50565b61441281613ca3565b811461441d57600080fd5b50565b61442981613cef565b811461443457600080fd5b5056fea264697066735822122007bcb219496bad9f0ec3c56f95f90f27d378c809de7f7250042b9f22cb1a2c7864736f6c63430008030033",
  "linkReferences": {},
  "deployedLinkReferences": {}
}